{
  "contracts/NxCertify.sol": {
    "NxCertify": {
      "abi": [
        {
          "inputs": [],
          "stateMutability": "nonpayable",
          "type": "constructor"
        },
        {
          "anonymous": false,
          "inputs": [
            {
              "indexed": false,
              "internalType": "string",
              "name": "name",
              "type": "string"
            },
            {
              "indexed": false,
              "internalType": "uint256",
              "name": "code",
              "type": "uint256"
            }
          ],
          "name": "NewCertify",
          "type": "event"
        },
        {
          "inputs": [
            {
              "internalType": "uint256",
              "name": "code",
              "type": "uint256"
            }
          ],
          "name": "check",
          "outputs": [
            {
              "components": [
                {
                  "internalType": "string",
                  "name": "name",
                  "type": "string"
                },
                {
                  "internalType": "bool",
                  "name": "isValid",
                  "type": "bool"
                }
              ],
              "internalType": "struct NxCertify.Certificate",
              "name": "",
              "type": "tuple"
            }
          ],
          "stateMutability": "view",
          "type": "function"
        },
        {
          "inputs": [],
          "name": "codeStart",
          "outputs": [
            {
              "internalType": "uint256",
              "name": "",
              "type": "uint256"
            }
          ],
          "stateMutability": "view",
          "type": "function"
        },
        {
          "inputs": [
            {
              "internalType": "string",
              "name": "name",
              "type": "string"
            }
          ],
          "name": "gen",
          "outputs": [
            {
              "internalType": "uint256",
              "name": "",
              "type": "uint256"
            }
          ],
          "stateMutability": "nonpayable",
          "type": "function"
        }
      ],
      "evm": {
        "bytecode": {
          "linkReferences": {},
          "object": "608060405261271060015534801561001657600080fd5b50336000806101000a81548173ffffffffffffffffffffffffffffffffffffffff021916908373ffffffffffffffffffffffffffffffffffffffff160217905550610a9f806100666000396000f3fe608060405234801561001057600080fd5b50600436106100415760003560e01c80632570d9d3146100465780635f72f45014610076578063d293ddd5146100a6575b600080fd5b610060600480360381019061005b919061045f565b6100c4565b60405161006d91906104c1565b60405180910390f35b610090600480360381019061008b9190610508565b610209565b60405161009d919061060c565b60405180910390f35b6100ae6102e3565b6040516100bb91906104c1565b60405180910390f35b60008060009054906101000a900473ffffffffffffffffffffffffffffffffffffffff1673ffffffffffffffffffffffffffffffffffffffff163373ffffffffffffffffffffffffffffffffffffffff1614610155576040517f08c379a000000000000000000000000000000000000000000000000000000000815260040161014c9061068b565b60405180910390fd5b60016000815480929190610168906106da565b9190505550600160026000600154815260200190815260200160002060010160006101000a81548160ff0219169083151502179055508160026000600154815260200190815260200160002060000190816101c3919061092e565b507fe805549bfe829f169e22d8e4dd1c4b64fff214f504d89a193cb37fec63e74b0f826001546040516101f7929190610a39565b60405180910390a16001549050919050565b6102116102e9565b6002600083815260200190815260200160002060405180604001604052908160008201805461023f90610751565b80601f016020809104026020016040519081016040528092919081815260200182805461026b90610751565b80156102b85780601f1061028d576101008083540402835291602001916102b8565b820191906000526020600020905b81548152906001019060200180831161029b57829003601f168201915b505050505081526020016001820160009054906101000a900460ff1615151515815250509050919050565b60015481565b6040518060400160405280606081526020016000151581525090565b6000604051905090565b600080fd5b600080fd5b600080fd5b600080fd5b6000601f19601f8301169050919050565b7f4e487b7100000000000000000000000000000000000000000000000000000000600052604160045260246000fd5b61036c82610323565b810181811067ffffffffffffffff8211171561038b5761038a610334565b5b80604052505050565b600061039e610305565b90506103aa8282610363565b919050565b600067ffffffffffffffff8211156103ca576103c9610334565b5b6103d382610323565b9050602081019050919050565b82818337600083830152505050565b60006104026103fd846103af565b610394565b90508281526020810184848401111561041e5761041d61031e565b5b6104298482856103e0565b509392505050565b600082601f83011261044657610445610319565b5b81356104568482602086016103ef565b91505092915050565b6000602082840312156104755761047461030f565b5b600082013567ffffffffffffffff81111561049357610492610314565b5b61049f84828501610431565b91505092915050565b6000819050919050565b6104bb816104a8565b82525050565b60006020820190506104d660008301846104b2565b92915050565b6104e5816104a8565b81146104f057600080fd5b50565b600081359050610502816104dc565b92915050565b60006020828403121561051e5761051d61030f565b5b600061052c848285016104f3565b91505092915050565b600081519050919050565b600082825260208201905092915050565b60005b8381101561056f578082015181840152602081019050610554565b60008484015250505050565b600061058682610535565b6105908185610540565b93506105a0818560208601610551565b6105a981610323565b840191505092915050565b60008115159050919050565b6105c9816105b4565b82525050565b600060408301600083015184820360008601526105ec828261057b565b915050602083015161060160208601826105c0565b508091505092915050565b6000602082019050818103600083015261062681846105cf565b905092915050565b600082825260208201905092915050565b7f4f4e4c595f4f574e45525f5045524d495353494f4e0000000000000000000000600082015250565b600061067560158361062e565b91506106808261063f565b602082019050919050565b600060208201905081810360008301526106a481610668565b9050919050565b7f4e487b7100000000000000000000000000000000000000000000000000000000600052601160045260246000fd5b60006106e5826104a8565b91507fffffffffffffffffffffffffffffffffffffffffffffffffffffffffffffffff8203610717576107166106ab565b5b600182019050919050565b7f4e487b7100000000000000000000000000000000000000000000000000000000600052602260045260246000fd5b6000600282049050600182168061076957607f821691505b60208210810361077c5761077b610722565b5b50919050565b60008190508160005260206000209050919050565b60006020601f8301049050919050565b600082821b905092915050565b6000600883026107e47fffffffffffffffffffffffffffffffffffffffffffffffffffffffffffffffff826107a7565b6107ee86836107a7565b95508019841693508086168417925050509392505050565b6000819050919050565b600061082b610826610821846104a8565b610806565b6104a8565b9050919050565b6000819050919050565b61084583610810565b61085961085182610832565b8484546107b4565b825550505050565b600090565b61086e610861565b61087981848461083c565b505050565b5b8181101561089d57610892600082610866565b60018101905061087f565b5050565b601f8211156108e2576108b381610782565b6108bc84610797565b810160208510156108cb578190505b6108df6108d785610797565b83018261087e565b50505b505050565b600082821c905092915050565b6000610905600019846008026108e7565b1980831691505092915050565b600061091e83836108f4565b9150826002028217905092915050565b61093782610535565b67ffffffffffffffff8111156109505761094f610334565b5b61095a8254610751565b6109658282856108a1565b600060209050601f8311600181146109985760008415610986578287015190505b6109908582610912565b8655506109f8565b601f1984166109a686610782565b60005b828110156109ce578489015182556001820191506020850194506020810190506109a9565b868310156109eb57848901516109e7601f8916826108f4565b8355505b6001600288020188555050505b505050505050565b6000610a0b82610535565b610a15818561062e565b9350610a25818560208601610551565b610a2e81610323565b840191505092915050565b60006040820190508181036000830152610a538185610a00565b9050610a6260208301846104b2565b939250505056fea2646970667358221220691bc3d94f05c29638b0d65867732a94570cc368eda8fcfb0fcd138c4c756e8864736f6c63430008180033",
          "opcodes": "PUSH1 0x80 PUSH1 0x40 MSTORE PUSH2 0x2710 PUSH1 0x1 SSTORE CALLVALUE DUP1 ISZERO PUSH2 0x16 JUMPI PUSH1 0x0 DUP1 REVERT JUMPDEST POP CALLER PUSH1 0x0 DUP1 PUSH2 0x100 EXP DUP2 SLOAD DUP2 PUSH20 0xFFFFFFFFFFFFFFFFFFFFFFFFFFFFFFFFFFFFFFFF MUL NOT AND SWAP1 DUP4 PUSH20 0xFFFFFFFFFFFFFFFFFFFFFFFFFFFFFFFFFFFFFFFF AND MUL OR SWAP1 SSTORE POP PUSH2 0xA9F DUP1 PUSH2 0x66 PUSH1 0x0 CODECOPY PUSH1 0x0 RETURN INVALID PUSH1 0x80 PUSH1 0x40 MSTORE CALLVALUE DUP1 ISZERO PUSH2 0x10 JUMPI PUSH1 0x0 DUP1 REVERT JUMPDEST POP PUSH1 0x4 CALLDATASIZE LT PUSH2 0x41 JUMPI PUSH1 0x0 CALLDATALOAD PUSH1 0xE0 SHR DUP1 PUSH4 0x2570D9D3 EQ PUSH2 0x46 JUMPI DUP1 PUSH4 0x5F72F450 EQ PUSH2 0x76 JUMPI DUP1 PUSH4 0xD293DDD5 EQ PUSH2 0xA6 JUMPI JUMPDEST PUSH1 0x0 DUP1 REVERT JUMPDEST PUSH2 0x60 PUSH1 0x4 DUP1 CALLDATASIZE SUB DUP2 ADD SWAP1 PUSH2 0x5B SWAP2 SWAP1 PUSH2 0x45F JUMP JUMPDEST PUSH2 0xC4 JUMP JUMPDEST PUSH1 0x40 MLOAD PUSH2 0x6D SWAP2 SWAP1 PUSH2 0x4C1 JUMP JUMPDEST PUSH1 0x40 MLOAD DUP1 SWAP2 SUB SWAP1 RETURN JUMPDEST PUSH2 0x90 PUSH1 0x4 DUP1 CALLDATASIZE SUB DUP2 ADD SWAP1 PUSH2 0x8B SWAP2 SWAP1 PUSH2 0x508 JUMP JUMPDEST PUSH2 0x209 JUMP JUMPDEST PUSH1 0x40 MLOAD PUSH2 0x9D SWAP2 SWAP1 PUSH2 0x60C JUMP JUMPDEST PUSH1 0x40 MLOAD DUP1 SWAP2 SUB SWAP1 RETURN JUMPDEST PUSH2 0xAE PUSH2 0x2E3 JUMP JUMPDEST PUSH1 0x40 MLOAD PUSH2 0xBB SWAP2 SWAP1 PUSH2 0x4C1 JUMP JUMPDEST PUSH1 0x40 MLOAD DUP1 SWAP2 SUB SWAP1 RETURN JUMPDEST PUSH1 0x0 DUP1 PUSH1 0x0 SWAP1 SLOAD SWAP1 PUSH2 0x100 EXP SWAP1 DIV PUSH20 0xFFFFFFFFFFFFFFFFFFFFFFFFFFFFFFFFFFFFFFFF AND PUSH20 0xFFFFFFFFFFFFFFFFFFFFFFFFFFFFFFFFFFFFFFFF AND CALLER PUSH20 0xFFFFFFFFFFFFFFFFFFFFFFFFFFFFFFFFFFFFFFFF AND EQ PUSH2 0x155 JUMPI PUSH1 0x40 MLOAD PUSH32 0x8C379A000000000000000000000000000000000000000000000000000000000 DUP2 MSTORE PUSH1 0x4 ADD PUSH2 0x14C SWAP1 PUSH2 0x68B JUMP JUMPDEST PUSH1 0x40 MLOAD DUP1 SWAP2 SUB SWAP1 REVERT JUMPDEST PUSH1 0x1 PUSH1 0x0 DUP2 SLOAD DUP1 SWAP3 SWAP2 SWAP1 PUSH2 0x168 SWAP1 PUSH2 0x6DA JUMP JUMPDEST SWAP2 SWAP1 POP SSTORE POP PUSH1 0x1 PUSH1 0x2 PUSH1 0x0 PUSH1 0x1 SLOAD DUP2 MSTORE PUSH1 0x20 ADD SWAP1 DUP2 MSTORE PUSH1 0x20 ADD PUSH1 0x0 KECCAK256 PUSH1 0x1 ADD PUSH1 0x0 PUSH2 0x100 EXP DUP2 SLOAD DUP2 PUSH1 0xFF MUL NOT AND SWAP1 DUP4 ISZERO ISZERO MUL OR SWAP1 SSTORE POP DUP2 PUSH1 0x2 PUSH1 0x0 PUSH1 0x1 SLOAD DUP2 MSTORE PUSH1 0x20 ADD SWAP1 DUP2 MSTORE PUSH1 0x20 ADD PUSH1 0x0 KECCAK256 PUSH1 0x0 ADD SWAP1 DUP2 PUSH2 0x1C3 SWAP2 SWAP1 PUSH2 0x92E JUMP JUMPDEST POP PUSH32 0xE805549BFE829F169E22D8E4DD1C4B64FFF214F504D89A193CB37FEC63E74B0F DUP3 PUSH1 0x1 SLOAD PUSH1 0x40 MLOAD PUSH2 0x1F7 SWAP3 SWAP2 SWAP1 PUSH2 0xA39 JUMP JUMPDEST PUSH1 0x40 MLOAD DUP1 SWAP2 SUB SWAP1 LOG1 PUSH1 0x1 SLOAD SWAP1 POP SWAP2 SWAP1 POP JUMP JUMPDEST PUSH2 0x211 PUSH2 0x2E9 JUMP JUMPDEST PUSH1 0x2 PUSH1 0x0 DUP4 DUP2 MSTORE PUSH1 0x20 ADD SWAP1 DUP2 MSTORE PUSH1 0x20 ADD PUSH1 0x0 KECCAK256 PUSH1 0x40 MLOAD DUP1 PUSH1 0x40 ADD PUSH1 0x40 MSTORE SWAP1 DUP2 PUSH1 0x0 DUP3 ADD DUP1 SLOAD PUSH2 0x23F SWAP1 PUSH2 0x751 JUMP JUMPDEST DUP1 PUSH1 0x1F ADD PUSH1 0x20 DUP1 SWAP2 DIV MUL PUSH1 0x20 ADD PUSH1 0x40 MLOAD SWAP1 DUP2 ADD PUSH1 0x40 MSTORE DUP1 SWAP3 SWAP2 SWAP1 DUP2 DUP2 MSTORE PUSH1 0x20 ADD DUP3 DUP1 SLOAD PUSH2 0x26B SWAP1 PUSH2 0x751 JUMP JUMPDEST DUP1 ISZERO PUSH2 0x2B8 JUMPI DUP1 PUSH1 0x1F LT PUSH2 0x28D JUMPI PUSH2 0x100 DUP1 DUP4 SLOAD DIV MUL DUP4 MSTORE SWAP2 PUSH1 0x20 ADD SWAP2 PUSH2 0x2B8 JUMP JUMPDEST DUP3 ADD SWAP2 SWAP1 PUSH1 0x0 MSTORE PUSH1 0x20 PUSH1 0x0 KECCAK256 SWAP1 JUMPDEST DUP2 SLOAD DUP2 MSTORE SWAP1 PUSH1 0x1 ADD SWAP1 PUSH1 0x20 ADD DUP1 DUP4 GT PUSH2 0x29B JUMPI DUP3 SWAP1 SUB PUSH1 0x1F AND DUP3 ADD SWAP2 JUMPDEST POP POP POP POP POP DUP2 MSTORE PUSH1 0x20 ADD PUSH1 0x1 DUP3 ADD PUSH1 0x0 SWAP1 SLOAD SWAP1 PUSH2 0x100 EXP SWAP1 DIV PUSH1 0xFF AND ISZERO ISZERO ISZERO ISZERO DUP2 MSTORE POP POP SWAP1 POP SWAP2 SWAP1 POP JUMP JUMPDEST PUSH1 0x1 SLOAD DUP2 JUMP JUMPDEST PUSH1 0x40 MLOAD DUP1 PUSH1 0x40 ADD PUSH1 0x40 MSTORE DUP1 PUSH1 0x60 DUP2 MSTORE PUSH1 0x20 ADD PUSH1 0x0 ISZERO ISZERO DUP2 MSTORE POP SWAP1 JUMP JUMPDEST PUSH1 0x0 PUSH1 0x40 MLOAD SWAP1 POP SWAP1 JUMP JUMPDEST PUSH1 0x0 DUP1 REVERT JUMPDEST PUSH1 0x0 DUP1 REVERT JUMPDEST PUSH1 0x0 DUP1 REVERT JUMPDEST PUSH1 0x0 DUP1 REVERT JUMPDEST PUSH1 0x0 PUSH1 0x1F NOT PUSH1 0x1F DUP4 ADD AND SWAP1 POP SWAP2 SWAP1 POP JUMP JUMPDEST PUSH32 0x4E487B7100000000000000000000000000000000000000000000000000000000 PUSH1 0x0 MSTORE PUSH1 0x41 PUSH1 0x4 MSTORE PUSH1 0x24 PUSH1 0x0 REVERT JUMPDEST PUSH2 0x36C DUP3 PUSH2 0x323 JUMP JUMPDEST DUP2 ADD DUP2 DUP2 LT PUSH8 0xFFFFFFFFFFFFFFFF DUP3 GT OR ISZERO PUSH2 0x38B JUMPI PUSH2 0x38A PUSH2 0x334 JUMP JUMPDEST JUMPDEST DUP1 PUSH1 0x40 MSTORE POP POP POP JUMP JUMPDEST PUSH1 0x0 PUSH2 0x39E PUSH2 0x305 JUMP JUMPDEST SWAP1 POP PUSH2 0x3AA DUP3 DUP3 PUSH2 0x363 JUMP JUMPDEST SWAP2 SWAP1 POP JUMP JUMPDEST PUSH1 0x0 PUSH8 0xFFFFFFFFFFFFFFFF DUP3 GT ISZERO PUSH2 0x3CA JUMPI PUSH2 0x3C9 PUSH2 0x334 JUMP JUMPDEST JUMPDEST PUSH2 0x3D3 DUP3 PUSH2 0x323 JUMP JUMPDEST SWAP1 POP PUSH1 0x20 DUP2 ADD SWAP1 POP SWAP2 SWAP1 POP JUMP JUMPDEST DUP3 DUP2 DUP4 CALLDATACOPY PUSH1 0x0 DUP4 DUP4 ADD MSTORE POP POP POP JUMP JUMPDEST PUSH1 0x0 PUSH2 0x402 PUSH2 0x3FD DUP5 PUSH2 0x3AF JUMP JUMPDEST PUSH2 0x394 JUMP JUMPDEST SWAP1 POP DUP3 DUP2 MSTORE PUSH1 0x20 DUP2 ADD DUP5 DUP5 DUP5 ADD GT ISZERO PUSH2 0x41E JUMPI PUSH2 0x41D PUSH2 0x31E JUMP JUMPDEST JUMPDEST PUSH2 0x429 DUP5 DUP3 DUP6 PUSH2 0x3E0 JUMP JUMPDEST POP SWAP4 SWAP3 POP POP POP JUMP JUMPDEST PUSH1 0x0 DUP3 PUSH1 0x1F DUP4 ADD SLT PUSH2 0x446 JUMPI PUSH2 0x445 PUSH2 0x319 JUMP JUMPDEST JUMPDEST DUP2 CALLDATALOAD PUSH2 0x456 DUP5 DUP3 PUSH1 0x20 DUP7 ADD PUSH2 0x3EF JUMP JUMPDEST SWAP2 POP POP SWAP3 SWAP2 POP POP JUMP JUMPDEST PUSH1 0x0 PUSH1 0x20 DUP3 DUP5 SUB SLT ISZERO PUSH2 0x475 JUMPI PUSH2 0x474 PUSH2 0x30F JUMP JUMPDEST JUMPDEST PUSH1 0x0 DUP3 ADD CALLDATALOAD PUSH8 0xFFFFFFFFFFFFFFFF DUP2 GT ISZERO PUSH2 0x493 JUMPI PUSH2 0x492 PUSH2 0x314 JUMP JUMPDEST JUMPDEST PUSH2 0x49F DUP5 DUP3 DUP6 ADD PUSH2 0x431 JUMP JUMPDEST SWAP2 POP POP SWAP3 SWAP2 POP POP JUMP JUMPDEST PUSH1 0x0 DUP2 SWAP1 POP SWAP2 SWAP1 POP JUMP JUMPDEST PUSH2 0x4BB DUP2 PUSH2 0x4A8 JUMP JUMPDEST DUP3 MSTORE POP POP JUMP JUMPDEST PUSH1 0x0 PUSH1 0x20 DUP3 ADD SWAP1 POP PUSH2 0x4D6 PUSH1 0x0 DUP4 ADD DUP5 PUSH2 0x4B2 JUMP JUMPDEST SWAP3 SWAP2 POP POP JUMP JUMPDEST PUSH2 0x4E5 DUP2 PUSH2 0x4A8 JUMP JUMPDEST DUP2 EQ PUSH2 0x4F0 JUMPI PUSH1 0x0 DUP1 REVERT JUMPDEST POP JUMP JUMPDEST PUSH1 0x0 DUP2 CALLDATALOAD SWAP1 POP PUSH2 0x502 DUP2 PUSH2 0x4DC JUMP JUMPDEST SWAP3 SWAP2 POP POP JUMP JUMPDEST PUSH1 0x0 PUSH1 0x20 DUP3 DUP5 SUB SLT ISZERO PUSH2 0x51E JUMPI PUSH2 0x51D PUSH2 0x30F JUMP JUMPDEST JUMPDEST PUSH1 0x0 PUSH2 0x52C DUP5 DUP3 DUP6 ADD PUSH2 0x4F3 JUMP JUMPDEST SWAP2 POP POP SWAP3 SWAP2 POP POP JUMP JUMPDEST PUSH1 0x0 DUP2 MLOAD SWAP1 POP SWAP2 SWAP1 POP JUMP JUMPDEST PUSH1 0x0 DUP3 DUP3 MSTORE PUSH1 0x20 DUP3 ADD SWAP1 POP SWAP3 SWAP2 POP POP JUMP JUMPDEST PUSH1 0x0 JUMPDEST DUP4 DUP2 LT ISZERO PUSH2 0x56F JUMPI DUP1 DUP3 ADD MLOAD DUP2 DUP5 ADD MSTORE PUSH1 0x20 DUP2 ADD SWAP1 POP PUSH2 0x554 JUMP JUMPDEST PUSH1 0x0 DUP5 DUP5 ADD MSTORE POP POP POP POP JUMP JUMPDEST PUSH1 0x0 PUSH2 0x586 DUP3 PUSH2 0x535 JUMP JUMPDEST PUSH2 0x590 DUP2 DUP6 PUSH2 0x540 JUMP JUMPDEST SWAP4 POP PUSH2 0x5A0 DUP2 DUP6 PUSH1 0x20 DUP7 ADD PUSH2 0x551 JUMP JUMPDEST PUSH2 0x5A9 DUP2 PUSH2 0x323 JUMP JUMPDEST DUP5 ADD SWAP2 POP POP SWAP3 SWAP2 POP POP JUMP JUMPDEST PUSH1 0x0 DUP2 ISZERO ISZERO SWAP1 POP SWAP2 SWAP1 POP JUMP JUMPDEST PUSH2 0x5C9 DUP2 PUSH2 0x5B4 JUMP JUMPDEST DUP3 MSTORE POP POP JUMP JUMPDEST PUSH1 0x0 PUSH1 0x40 DUP4 ADD PUSH1 0x0 DUP4 ADD MLOAD DUP5 DUP3 SUB PUSH1 0x0 DUP7 ADD MSTORE PUSH2 0x5EC DUP3 DUP3 PUSH2 0x57B JUMP JUMPDEST SWAP2 POP POP PUSH1 0x20 DUP4 ADD MLOAD PUSH2 0x601 PUSH1 0x20 DUP7 ADD DUP3 PUSH2 0x5C0 JUMP JUMPDEST POP DUP1 SWAP2 POP POP SWAP3 SWAP2 POP POP JUMP JUMPDEST PUSH1 0x0 PUSH1 0x20 DUP3 ADD SWAP1 POP DUP2 DUP2 SUB PUSH1 0x0 DUP4 ADD MSTORE PUSH2 0x626 DUP2 DUP5 PUSH2 0x5CF JUMP JUMPDEST SWAP1 POP SWAP3 SWAP2 POP POP JUMP JUMPDEST PUSH1 0x0 DUP3 DUP3 MSTORE PUSH1 0x20 DUP3 ADD SWAP1 POP SWAP3 SWAP2 POP POP JUMP JUMPDEST PUSH32 0x4F4E4C595F4F574E45525F5045524D495353494F4E0000000000000000000000 PUSH1 0x0 DUP3 ADD MSTORE POP JUMP JUMPDEST PUSH1 0x0 PUSH2 0x675 PUSH1 0x15 DUP4 PUSH2 0x62E JUMP JUMPDEST SWAP2 POP PUSH2 0x680 DUP3 PUSH2 0x63F JUMP JUMPDEST PUSH1 0x20 DUP3 ADD SWAP1 POP SWAP2 SWAP1 POP JUMP JUMPDEST PUSH1 0x0 PUSH1 0x20 DUP3 ADD SWAP1 POP DUP2 DUP2 SUB PUSH1 0x0 DUP4 ADD MSTORE PUSH2 0x6A4 DUP2 PUSH2 0x668 JUMP JUMPDEST SWAP1 POP SWAP2 SWAP1 POP JUMP JUMPDEST PUSH32 0x4E487B7100000000000000000000000000000000000000000000000000000000 PUSH1 0x0 MSTORE PUSH1 0x11 PUSH1 0x4 MSTORE PUSH1 0x24 PUSH1 0x0 REVERT JUMPDEST PUSH1 0x0 PUSH2 0x6E5 DUP3 PUSH2 0x4A8 JUMP JUMPDEST SWAP2 POP PUSH32 0xFFFFFFFFFFFFFFFFFFFFFFFFFFFFFFFFFFFFFFFFFFFFFFFFFFFFFFFFFFFFFFFF DUP3 SUB PUSH2 0x717 JUMPI PUSH2 0x716 PUSH2 0x6AB JUMP JUMPDEST JUMPDEST PUSH1 0x1 DUP3 ADD SWAP1 POP SWAP2 SWAP1 POP JUMP JUMPDEST PUSH32 0x4E487B7100000000000000000000000000000000000000000000000000000000 PUSH1 0x0 MSTORE PUSH1 0x22 PUSH1 0x4 MSTORE PUSH1 0x24 PUSH1 0x0 REVERT JUMPDEST PUSH1 0x0 PUSH1 0x2 DUP3 DIV SWAP1 POP PUSH1 0x1 DUP3 AND DUP1 PUSH2 0x769 JUMPI PUSH1 0x7F DUP3 AND SWAP2 POP JUMPDEST PUSH1 0x20 DUP3 LT DUP2 SUB PUSH2 0x77C JUMPI PUSH2 0x77B PUSH2 0x722 JUMP JUMPDEST JUMPDEST POP SWAP2 SWAP1 POP JUMP JUMPDEST PUSH1 0x0 DUP2 SWAP1 POP DUP2 PUSH1 0x0 MSTORE PUSH1 0x20 PUSH1 0x0 KECCAK256 SWAP1 POP SWAP2 SWAP1 POP JUMP JUMPDEST PUSH1 0x0 PUSH1 0x20 PUSH1 0x1F DUP4 ADD DIV SWAP1 POP SWAP2 SWAP1 POP JUMP JUMPDEST PUSH1 0x0 DUP3 DUP3 SHL SWAP1 POP SWAP3 SWAP2 POP POP JUMP JUMPDEST PUSH1 0x0 PUSH1 0x8 DUP4 MUL PUSH2 0x7E4 PUSH32 0xFFFFFFFFFFFFFFFFFFFFFFFFFFFFFFFFFFFFFFFFFFFFFFFFFFFFFFFFFFFFFFFF DUP3 PUSH2 0x7A7 JUMP JUMPDEST PUSH2 0x7EE DUP7 DUP4 PUSH2 0x7A7 JUMP JUMPDEST SWAP6 POP DUP1 NOT DUP5 AND SWAP4 POP DUP1 DUP7 AND DUP5 OR SWAP3 POP POP POP SWAP4 SWAP3 POP POP POP JUMP JUMPDEST PUSH1 0x0 DUP2 SWAP1 POP SWAP2 SWAP1 POP JUMP JUMPDEST PUSH1 0x0 PUSH2 0x82B PUSH2 0x826 PUSH2 0x821 DUP5 PUSH2 0x4A8 JUMP JUMPDEST PUSH2 0x806 JUMP JUMPDEST PUSH2 0x4A8 JUMP JUMPDEST SWAP1 POP SWAP2 SWAP1 POP JUMP JUMPDEST PUSH1 0x0 DUP2 SWAP1 POP SWAP2 SWAP1 POP JUMP JUMPDEST PUSH2 0x845 DUP4 PUSH2 0x810 JUMP JUMPDEST PUSH2 0x859 PUSH2 0x851 DUP3 PUSH2 0x832 JUMP JUMPDEST DUP5 DUP5 SLOAD PUSH2 0x7B4 JUMP JUMPDEST DUP3 SSTORE POP POP POP POP JUMP JUMPDEST PUSH1 0x0 SWAP1 JUMP JUMPDEST PUSH2 0x86E PUSH2 0x861 JUMP JUMPDEST PUSH2 0x879 DUP2 DUP5 DUP5 PUSH2 0x83C JUMP JUMPDEST POP POP POP JUMP JUMPDEST JUMPDEST DUP2 DUP2 LT ISZERO PUSH2 0x89D JUMPI PUSH2 0x892 PUSH1 0x0 DUP3 PUSH2 0x866 JUMP JUMPDEST PUSH1 0x1 DUP2 ADD SWAP1 POP PUSH2 0x87F JUMP JUMPDEST POP POP JUMP JUMPDEST PUSH1 0x1F DUP3 GT ISZERO PUSH2 0x8E2 JUMPI PUSH2 0x8B3 DUP2 PUSH2 0x782 JUMP JUMPDEST PUSH2 0x8BC DUP5 PUSH2 0x797 JUMP JUMPDEST DUP2 ADD PUSH1 0x20 DUP6 LT ISZERO PUSH2 0x8CB JUMPI DUP2 SWAP1 POP JUMPDEST PUSH2 0x8DF PUSH2 0x8D7 DUP6 PUSH2 0x797 JUMP JUMPDEST DUP4 ADD DUP3 PUSH2 0x87E JUMP JUMPDEST POP POP JUMPDEST POP POP POP JUMP JUMPDEST PUSH1 0x0 DUP3 DUP3 SHR SWAP1 POP SWAP3 SWAP2 POP POP JUMP JUMPDEST PUSH1 0x0 PUSH2 0x905 PUSH1 0x0 NOT DUP5 PUSH1 0x8 MUL PUSH2 0x8E7 JUMP JUMPDEST NOT DUP1 DUP4 AND SWAP2 POP POP SWAP3 SWAP2 POP POP JUMP JUMPDEST PUSH1 0x0 PUSH2 0x91E DUP4 DUP4 PUSH2 0x8F4 JUMP JUMPDEST SWAP2 POP DUP3 PUSH1 0x2 MUL DUP3 OR SWAP1 POP SWAP3 SWAP2 POP POP JUMP JUMPDEST PUSH2 0x937 DUP3 PUSH2 0x535 JUMP JUMPDEST PUSH8 0xFFFFFFFFFFFFFFFF DUP2 GT ISZERO PUSH2 0x950 JUMPI PUSH2 0x94F PUSH2 0x334 JUMP JUMPDEST JUMPDEST PUSH2 0x95A DUP3 SLOAD PUSH2 0x751 JUMP JUMPDEST PUSH2 0x965 DUP3 DUP3 DUP6 PUSH2 0x8A1 JUMP JUMPDEST PUSH1 0x0 PUSH1 0x20 SWAP1 POP PUSH1 0x1F DUP4 GT PUSH1 0x1 DUP2 EQ PUSH2 0x998 JUMPI PUSH1 0x0 DUP5 ISZERO PUSH2 0x986 JUMPI DUP3 DUP8 ADD MLOAD SWAP1 POP JUMPDEST PUSH2 0x990 DUP6 DUP3 PUSH2 0x912 JUMP JUMPDEST DUP7 SSTORE POP PUSH2 0x9F8 JUMP JUMPDEST PUSH1 0x1F NOT DUP5 AND PUSH2 0x9A6 DUP7 PUSH2 0x782 JUMP JUMPDEST PUSH1 0x0 JUMPDEST DUP3 DUP2 LT ISZERO PUSH2 0x9CE JUMPI DUP5 DUP10 ADD MLOAD DUP3 SSTORE PUSH1 0x1 DUP3 ADD SWAP2 POP PUSH1 0x20 DUP6 ADD SWAP5 POP PUSH1 0x20 DUP2 ADD SWAP1 POP PUSH2 0x9A9 JUMP JUMPDEST DUP7 DUP4 LT ISZERO PUSH2 0x9EB JUMPI DUP5 DUP10 ADD MLOAD PUSH2 0x9E7 PUSH1 0x1F DUP10 AND DUP3 PUSH2 0x8F4 JUMP JUMPDEST DUP4 SSTORE POP JUMPDEST PUSH1 0x1 PUSH1 0x2 DUP9 MUL ADD DUP9 SSTORE POP POP POP JUMPDEST POP POP POP POP POP POP JUMP JUMPDEST PUSH1 0x0 PUSH2 0xA0B DUP3 PUSH2 0x535 JUMP JUMPDEST PUSH2 0xA15 DUP2 DUP6 PUSH2 0x62E JUMP JUMPDEST SWAP4 POP PUSH2 0xA25 DUP2 DUP6 PUSH1 0x20 DUP7 ADD PUSH2 0x551 JUMP JUMPDEST PUSH2 0xA2E DUP2 PUSH2 0x323 JUMP JUMPDEST DUP5 ADD SWAP2 POP POP SWAP3 SWAP2 POP POP JUMP JUMPDEST PUSH1 0x0 PUSH1 0x40 DUP3 ADD SWAP1 POP DUP2 DUP2 SUB PUSH1 0x0 DUP4 ADD MSTORE PUSH2 0xA53 DUP2 DUP6 PUSH2 0xA00 JUMP JUMPDEST SWAP1 POP PUSH2 0xA62 PUSH1 0x20 DUP4 ADD DUP5 PUSH2 0x4B2 JUMP JUMPDEST SWAP4 SWAP3 POP POP POP JUMP INVALID LOG2 PUSH5 0x6970667358 0x22 SLT KECCAK256 PUSH10 0x1BC3D94F05C29638B0D6 PC PUSH8 0x732A94570CC368ED 0xA8 0xFC 0xFB 0xF 0xCD SGT DUP13 0x4C PUSH22 0x6E8864736F6C63430008180033000000000000000000 "
        },
        "methodIdentifiers": {
          "check(uint256)": "5f72f450",
          "codeStart()": "d293ddd5",
          "gen(string)": "2570d9d3"
        }
      }
    }
  }
}